:020000040800F2
:1000000000500020B11A0008E51A00089905000800
:10001000A1050008A9050008B105000800000000BE
:10002000000000000000000000000000654400081F
:10003000E51A000800000000294400086943000890
:10004000E51A0008E51A0008E51A0008E51A000894
:10005000E51A0008E51A0008E51A0008E51A000884
:10006000E51A0008E51A0008E51A0008E51A000874
:10007000E51A0008E51A0008E51A0008E51A000864
:10008000E51A0008E51A0008E51A000891050008BD
:1000900091040008E51A000895050008E51A000813
:1000A000E51A0008E51A0008E51A0008E51A000834
:1000B000E51A0008E51A0008E51A0008E51A000824
:1000C000E51A0008E51A0008E51A0008E51A000814
:1000D000E51A0008E51A0008E51A0008E51A000804
:1000E000E51A0008E51A0008E51A000800000000FB
:1000F0000000000000000000000000000000000000
:1001000000000000000000005FF808F10348044B05
:10011000834202D0034B03B118477047A805002063
:10012000A8050020000000000548064B1B1AD90F47
:1001300001EBA301491002D0034B03B118477047EC
:10014000A8050020A80500200000000010B5064CFE
:10015000237843B9FFF7DAFF044B13B10448AFF338
:1001600000800123237010BDA805002000000000BE
:10017000E46D000808B5054B1BB105490548AFF310
:100180000080BDE80840FFF7CFBF00BF00000000BF
:10019000AC050020E46D0008A3F5803A704700BF6D
:1001A000174B002B08BF134B9D46FFF7F5FF0021AF
:1001B0008B460F461348144A121A06F0A1F80E4B4C
:1001C000002B00D098470D4B002B00D09847002003
:1001D000002104000D000D48002802D00C48AFF3A8
:1001E000008006F0F1F82000290003F0F3FF05F08D
:1001F00037FC00BF00000800000000001D110008CF
:1002000000500020A8050020C00C002000000000C5
:1002100000000000704710B50446382100F064FF6C
:10022000204610BD38B5054655F8043B04469B688A
:100230009847284600F068F8054623682046DB68A2
:100240009847284638BD0346006818B9186808B9A9
:10025000181D18607047000008B50248FFF7F3FF4B
:1002600008BD00BFC405002008B50248FFF7EBFF3A
:1002700008BD00BFC4050020F8B505460E4604467B
:10028000074B084F45F8043B3846FFF7DCFF314683
:10029000284600F045F83846FFF7D5FF2046F8BD60
:1002A0002C680008C4050020002070470368012264
:1002B00000211B6918470022036811461B69184773
:1002C0006FF01500704703681B69184703689B6946
:1002D000184703689B6A184700290CBF6FF0180085
:1002E00000207047012070476FF0150070476FF0D5
:1002F00015007047704783681A6843681A4214BF34
:10030000012000207047000008B500F069F805F0F2
:100310005FF8024905F0B4F808BD00BF0108803954
:1003200070B5A1F1F0039BB20F2B04460D4686B0C9
:100330002FD92749284600F0F7FC25492060284698
:1003400000F012FD22490646284600F0A9FC258649
:10035000C6F384361F4D84F83260AB69012243F442
:100360000073AB61AB69204603F400730193019BFA
:100370000023C4E90133C4E90423A362E360A36159
:100380004FF46023E36101F09FFD68B1124800F073
:1003900057FB1249284600F0C7FC10492060284648
:1003A00000F0E2FC0646D2E76B6803F44043B3F585
:1003B000004F0AD0022302934FF4004302A8049393
:1003C00002F002F9204601F0FDFD06B070BD00BF4D
:1003D0003C68000800100240A4690008F0680008AA
:1003E0001FB50122042390F832100446CDE9022300
:1003F000112948D8DFE801F0090C24260A282A2C04
:100400002E30323436383A3C3E430023019300E02C
:10041000019201A9204601F01DFC204601F0D0FC0C
:100420000A21204601F074FB58BB204601F00EFC67
:1004300080B2164A936823F40003936004B010BDA1
:100440000223E3E70323E1E70523DFE70623DDE7F4
:100450000723DBE70823D9E70923D7E70A23D5E7F2
:100460000B23D3E70C23D1E70D23CFE70E23CDE7F2
:100470000F23CBE71023019307230393C9E711232D
:10048000F9E70020D5E70020D8E700BF00240140AD
:10049000394B70B55A69D2072FD59D68374C99688A
:1004A00005EA0406AC4308BF012435489A6801EA0E
:1004B000000108BF9C60814208BF4FF480702E4B42
:1004C00022F06F4222F47E0208BF9860120C2D4881
:1004D0001204824204BF4FF480309860274B9E4242
:1004E00005D0274B994202D0264B9A4205D1264B84
:1004F000264A01211B68106898471F4BDA685B6920
:10050000960707D09D0705D51F4B204A00211B6881
:1005100010689847184B99695A698C075B6909D527
:10052000900507D5190405D5174B184A05211B68F6
:1005300010689847104A9569546915F00405526986
:1005400004F4806408D03CB1120405D50E4B0F4A68
:1005500007211B6810689847074B5B6955B14CB180
:100560001B0407D5BDE87040074B084A02211B68F1
:100570001068184770BD00BF00640040010000040F
:100580000001000800000110D0050020CC0500206B
:10059000FFF77EBFFFF77CBF4FF0100300F00CB8F1
:1005A0004FF0200300F008B84FF0300300F004B81B
:1005B0004FF0400300F000B8EFF308804FF0040163
:1005C00072460A4201D0EFF309809C46254B196818
:1005D00002680A60043142680A60043182680A6075
:1005E0000431C2680A600431F0C147460F6004312B
:1005F0004F460F60043157460F6004315F460F606D
:10060000043102690A60083142690A600431826972
:100610000A600431C2690A600431034620334FF492
:100620000076324200D0043375464FF01006354252
:1006300000D148330C46103C2360EFF309820A6076
:100640000431EFF308820A60043172460A60043113
:10065000EFF314820A606046024B196800F08CFACE
:10066000FEE70000A06B000891FAA1F3B3FA83F350
:1006700070B50D0E0F2691FAA1F1B1FA81F144592E
:100680009B0006FA03F3890024EA030402FA01F14D
:100690002143415170BD00007FB5224B04283DD855
:1006A000DFE800F003101B2631009A691E4842F073
:1006B00004029A619B6903F004030193019B07B054
:1006C0005DF804FB9A69194842F008029A619B6937
:1006D00003F008030293029BF1E79A69144842F081
:1006E00010029A619B6903F010030393039BE6E7F2
:1006F0009A69104842F020029A619B6903F0200336
:100700000493049BDBE79A690B4842F040029A612C
:100710009B6903F040030593059BD0E7074800F071
:100720008FF900BF0010024000080140000C01409A
:10073000001001400014014000180140BA6900088F
:1007400010B54FF47071044600F082FF012004F0F0
:100750000F04A04010BD00004B1C70B504460E46AF
:10076000018218D0C1F30310FFF796FF054630460B
:10077000FFF7E6FF238A084A03F00F0352F82330FD
:100780006561A36105F10803636005F11003143589
:100790002060A360E56070BD2C6C0008B0F910000B
:1007A00001F026B803460A46D3E9050112B908222A
:1007B000FFF75ABF0122FBE708B502F00DFA00204F
:1007C00008BD00000D4B10B51B680D4C63B100F067
:1007D00099FE00F081FE23681844002323604FF443
:1007E0007A73B0FBF3F010BD064B074A5B6A2068D2
:1007F0001168181A80B208441060EFE75C06002008
:10080000D805002000080040D4050020034601223E
:10081000D3E84F0FC3E8412FC0B20029F8D1704789
:10082000D0E84F3FC0E8421FD8B2704700B589B04A
:1008300000F076F8052101A800F01FFA104E114DC6
:100840000424039B019A30461A6000F069FE049B61
:10085000019A30461A6000F063FE013CF1D1042495
:10086000039B019A28461A6000F05AFE049B019AE5
:1008700028461A6000F054FE013CF1D1E0E700BFC9
:10088000F0490200801A060010B504460146002215
:10089000022000F07BFB00F043F8204605F0D6FD77
:1008A00021460246022000F071FBBDE8104000F036
:1008B00041B8000000B5A3B002460B4601A8842150
:1008C00005F0F6FC832806D9074B1A681B79CDF88A
:1008D00083208DF88730002802DD01A8FFF7D4FFC0
:1008E00023B05DF804FB00BFDB6900080FB407B557
:1008F00004A951F8040B0191FFF7DCFF03B05DF888
:1009000004EB04B07047EFF31080C04300F0010027
:100910007047EFF30580003818BF012070470000D2
:1009200008B500F013F8024A13680133136008BDDC
:10093000DC050020044A136823B1013B13600BB9A6
:1009400000F016B8704700BFDC050020EFF31083FD
:1009500072B6054A117831B9DB43044903F001034B
:100960000B70012313707047E1050020E0050020A3
:100970000022034B1A70034B1B7803B162B6704719
:10098000E1050020E005002008B50B48FFF73EFF19
:1009900028B1FFF7C5FFBFF34F8F20BFFDE7FFF77B
:1009A000B8FF08B1FFF742FFFFF7ADFF0028F9D00D
:1009B000012005F055F800BF2406002070B51B4C3F
:1009C0000D4634EA200428BF044616468EB028227D
:1009D000002104A805F094FCCDE901460395FFF73A
:1009E0009FFF134A13680133012B136009D1114C87
:1009F00001AD0FCD0FC40FCD0FC40FCD0FC42B68A9
:100A000023600D4D01AC0FCC0FC50FCC0FC50FCC23
:100A10000FC523682B60094B1B6813B1A5F130008B
:100A20009847FFF787FF00200EB070BD0101FF80DF
:100A3000E4050020F005002028060020E80500203D
:100A40000FB4012108B506487446FFF7E9FE0146D8
:100A500018B922460348FFF7B1FFFFF795FF00BF23
:100A6000EC0500200001FF80044608B5012106487E
:100A700076461546FFF7D4FE20B932462946204671
:100A8000FFF79CFFFFF780FFEC050020F0B52C4E30
:100A9000002435462B4F85B02146384656F8042BA6
:100AA0000134FFF723FF0D2CF6D1AB6C264C0293DB
:100AB0006B6C264801932B6C0093D5E90E23696B70
:100AC000FFF714FF21682248FFF710FFE16AA26ACE
:100AD000A36AA06A266BE76B000CCDE90167009062
:100AE000C3F307231B48D2B2FFF700FFA36A1E0619
:100AF00003D5616B1848FFF7F9FEA36A180403D504
:100B0000A16B1648FFF7F2FEEB6C190712D51448DB
:100B1000FFF7ECFE2B6DDA070FD51248FFF7E6FE64
:100B2000EB6C5B074CBF1048104805B0BDE8F040C7
:100B3000FFF7DCBE0E48FFF7D9FE0E48EEE700BF18
:100B4000140B0020E069000800ED00E0EE690008E9
:100B50003D6A00084B6A00089A6A0008A86A000803
:100B6000B66A0008C56A0008F56A0008016B00084B
:100B7000E56A0008D26A000813B504461548FFF775
:100B8000B5FE302C17D0402C1AD0202C1DD1124885
:100B9000FFF7ACFE114C1248FFF7A8FEFFF776FFF7
:100BA0001048FFF7A3FE00230F4A00932046D26BA4
:100BB0000E49FFF759FF0E48FFF798FE0D4CEAE784
:100BC0000D48FFF793FE0D4CE5E70D48FFF78EFE4D
:100BD0000C4CE0E70D6B0008366B00083E01FF800F
:100BE000636B00086E6B0008140B00208D6B00080F
:100BF000456B00083F01FF804E6B00084001FF80FD
:100C0000596B00083D01FF8070B50E46044615463D
:100C1000FFF7A2FD013609D020460021FFF7C2FDF3
:100C200029462046BDE87040FFF7B8BD70BD38B515
:100C300004460D4603685AB18268204601211360BC
:100C4000FFF7B0FD29462046BDE83840FFF7A6BDB6
:100C5000C268F2E70022FFF7D7BF70B50E46044620
:100C60001546FFF779FD013606D02A462046BDE835
:100C700070400021FFF7DBBF70BD0022FFF7EDBF22
:100C800008B501F065FF00F02FFF01F053FF01F000
:100C90005FFF0122014B1A6008BD00BF5C06002007
:100CA00013B50446601C0FD102B010BDA3420AD197
:100CB0002046896800F0CCFC0021204602B0BDE847
:100CC000104000F095BD0C31B1F900305A1CEDD147
:100CD00000232246194602480093FFF7C5FE00BFD5
:100CE0003001018007B502468A4208460AD0531CEB
:100CF00008D0013005D00023044819460093FFF7BF
:100D0000B3FE104603B05DF804FB00BF3001018064
:100D10000346B1F90000421C00D17047984201D14E
:100D2000486870470C31F4E7421C13B504460AD0FA
:100D3000FFF7EEFF431C06D1002322461946034865
:100D40000093FFF791FE02B010BD00BF300101809B
:100D50000346B1F90000421C00D17047984201D10E
:100D6000886870470C31F4E7421C13B504460AD07A
:100D7000FFF7EEFF431C06D1002322461946034825
:100D80000093FFF771FE02B010BD00BF300101807B
:100D90006FF01C0070476FF015007047012070471E
:100DA0000020704770470000F8B515460C46064E07
:100DB0008F18BC4205D0304614F8011B00F062FECB
:100DC000F7E72846F8BD00BF680B002038B511F0E2
:100DD00001048DB205D0084800F046FD041E18BF7E
:100DE0000124EB0605D5044800F054FD08B144F099
:100DF0001004204638BD00BF680B002010B5044623
:100E000004F048FE204610BD10B510460C4622B135
:100E1000024800F021FE2070012010BD680B002068
:100E200038B51D46074B04460360074B1B6833B9B2
:100E3000064800F07FFD2946044800F061FD204689
:100E400038BD00BFAC6B0008A8060020680B00206E
:100E50000020704700207047074A0849136818446B
:100E6000884283BF0C22064B4FF0FF3010608CBFCE
:100E70001A601846704700BFF4010020004C0020A3
:100E80000C0B0020012070477047704708B5FFF732
:100E9000FBFF08BD08B5FFF7F8FF08BD037803F0B6
:100EA0000303012B09D0037803F00302012A04D0C5
:100EB00043F002030370012070470020704703785D
:100EC00023F0030343F00103037070473F2870B51C
:100ED00004462FDC184D55F820305A1C13D1022837
:100EE00011DCFFF7B7FF034658B92046FFF7B0FF04
:100EF000034630B9114E3378BFF35B8FDB0704D55F
:100F00000F4B45F82430184670BD3046FFF7C6FF3A
:100F10000028F5D04FF41653032202210848FFF7AA
:100F20007FFF3046FFF7CBFF064A07490448FFF72B
:100F3000A9FFE5E70023E6E7F400002060060020B3
:100F400064060020F0000020A50D000838B5054615
:100F50000024FFF7BBFF0B4B43F8254030B905F0E9
:100F60002DFA092303604FF0FF3038BD03685B6939
:100F70009847051E04DA05F021FA6D420560F2E794
:100F80002046F2E7F4000020FFF7E0BF38B50C463A
:100F90001546FFF79BFF38B905F010FA09230360E7
:100FA0004FF0FF34204638BD036821462A46DB68EF
:100FB0009847041EF6DA05F001FA64420460EFE790
:100FC00008B5131E07DA05F0F9F9162303604FF090
:100FD000FF33184608BDFCD0FFF7D8FF40EAE073A6
:100FE000F7E738B50C461546FFF770FF38B905F03E
:100FF000E5F9092303604FF0FF34204638BD03684C
:1010000021462A469B689847041EF6DA05F0D6F971
:1010100064420460EFE7002A08B503DBBDE808403E
:10102000FFF7DFBF05F0CAF9162303604FF0FF306A
:1010300008BD38B50C461546FFF748FF38B905F02E
:10104000BDF9092303604FF0FF34204638BD036823
:1010500021462A461B699847041EF6DA05F0AEF9C8
:1010600064420460EFE7FFF7E4BF10B5FFF72EFF1F
:1010700030B905F0A3F9092303604FF0FF3010BD2C
:1010800003689B699847041E04DA05F097F96442E7
:101090000460F2E70020F2E704460A4D08B52B6829
:1010A000986804F0D3FF2B68D86804F0CFFF0120C4
:1010B000FFF7DBFF0220FFF7D8FF0CB1FFF7B6FB0D
:1010C000FEE700BF9005002013B5044604F0DAFCEB
:1010D000034628B90146009022460248FFF7C4FCA7
:1010E00002B010BD1F01018004F0D4BC70470000A5
:1010F000084B094998684FF00053C21802F160424A
:10110000126843F8042B8B42F7D14FF00052014B89
:101110009A60704700ED00E0EC00002008B5FFF792
:10112000E7FFFFF7ADFD01F0B1FDFFF7DFFF08BD01
:101130002DE9F74F4468064694F83A10002955D136
:1011400001684968884771680546096A81424DD03F
:10115000206AE168281A0140A66839488C46864210
:101160004FF0000E256239D0D4E90A5A94F83BB00A
:101170000027A1FB0001BBF1000F46D0CBF12008F6
:1011800001FA08F820FA0BFCABF1200E21FA0EFE52
:101190004CEA080C4CEA0E0C2D1821FA0BFEABF1B0
:1011A00020094AEB010ACBF120080EFA0BF10CFAE8
:1011B00009F941EA09012CFA08F80CFA0BF02B1A8C
:1011C00041EA080100936AEB01030193DDE9002382
:1011D000BB4208BFB2420CD2C4E90A23D4E90C01D5
:1011E00010EB0C0041EB0E01C4E90C0103B0BDE8AB
:1011F000F08F009B1CF1010C4EF1000E9A1B019B1D
:1012000063EB0703C4E90A23E8E732463B4604F0F0
:10121000A7FA12EB050843EB0A09B94508BFB04528
:1012200084468E4602D2C4E90A89D7E710F1010C40
:1012300041F1000EB8EB060269EB0703E2E700BFDD
:1012400040420F00824206D98A420BD9884294BF9D
:10125000002001207047884206D98A428CBF0020B6
:101260000120704701207047002070472DE9F74F9B
:10127000D0F80480074698F83A30002B7ED198F8D1
:101280003930002B7AD1FFF753FF7E683A687368D4
:101290000192002B64D0D6E90C01D3E900239942D6
:1012A00008BF904205D3019B5B6903B0BDE8F04FD6
:1012B0001847141A63EB0105D6E90623AB4208BFB1
:1012C000A242D6F8109006D3B2682E4B9A4218D19B
:1012D000A14528BFA146326A019B9144F2681B696F
:1012E00009EA0209484698473B685B6898474A46BE
:1012F0000146D8F82000FFF7A5FF00283ED03B6844
:10130000D2E796F83B30F3B1A3F1200CC3F12002F1
:1013100024FA02F204FA03F004FA0CFC1A4C05FA5F
:1013200003F100194FF000044FF0000341EA0C01F3
:1013300041EA0201134A44EB010104F011FA81452C
:1013400028BF8146C7E70021A2FB04AB02FB05BB17
:101350000D4800231AEB00000A4A4BEB0101ECE7B1
:10136000D8F81030D8F82000D8F80C201844019B89
:1013700010401B6903B0BDE8F04F184703B0BDE84B
:10138000F08F00BF40420F003F420F002DE9F04FA9
:101390004368054693F8382085B0002A61D193F858
:1013A0003A30002B5DD103681B6898472B68DB69D6
:1013B000984703682BB91A4619462B480093FFF744
:1013C00053FB1F21012202FA01F4A3425FFA81FAC2
:1013D00002D00139F7D18A464668321F1C2A05D946
:1013E000002322481A4619460093E8E71C460727BF
:1013F000002314F1FF381E4943F1FF399740C1FB28
:1014000007892246404649464FF0000804F0A8F9F3
:101410006B682A68C3E9008852688946834603934B
:1014200090470122039B0021186200206B6802FA9A
:1014300006F6013EC3E90A01C3E90C01C3E90367EB
:101440002846C3E906B99C6083F83BA01A8783F855
:101450003A80FFF76DFE284605B0BDE8F04FFFF774
:1014600005BF05B0BDE8F08F0E01048005010480C2
:1014700040420F0070B50446FFF752FA2368DB685C
:101480009847636893F83A201AB1BDE87040FFF7B7
:1014900051BA012283F8392063685B68A3B1204602
:1014A000FFF746FE65686E68D5E90C01D6E90023B2
:1014B000994208BF904207D3F3686B602B68002BFA
:1014C000EAD0B0689847E7E700226368204683F8CF
:1014D0003920FFF7CBFED8E738B50446FFF756FFB3
:1014E000FFF71EFA2046FFF723FE6368D3E90C4599
:1014F000FFF720FA2046294638BD08B5FFF7ECFF74
:1015000008BD704700487047006C0008024B1B681C
:101510000BB1024818477047F8010020006C000822
:1015200070B50446FFF7EEFF0646FFF7E6FF0546F7
:101530003046FFF7E2FF431BA342F9D370BD91FA97
:10154000A1F3B3FA83F370B50D0E0F2691FAA1F152
:10155000B1FA81F144599B0006FA03F3890024EAA9
:10156000030402FA01F12143415170BD0B0EC25830
:1015700091FAA1F0B0FA80F091FAA1F183000F2066
:10158000B1FA81F1984010408900C840704791FA43
:10159000A1F3B3FA83F370B50D0E032691FAA1F10E
:1015A000B1FA81F144599B0006FA03F3890024EA59
:1015B000030402FA01F12143415170BD91FAA1F3F4
:1015C000B3FA83F370B50D0E042691FAA1F1B1FAC6
:1015D00081F144599B0006FA03F3890024EA0304CD
:1015E00002FA01F12143415170BD70B5164604461F
:1015F0000D46FFF7BBFF012E0AD0022E1CD0082893
:1016000019D129462046BDE870400422FFF797BF54
:10161000042804D1082229462046FFF790FFE168FC
:101620002B0A21EA152193FAA3F5B5FA85F30125D2
:101630009D400D43E56070BD042804D10822294671
:101640002046FFF77CFFE16821EA1525F2E700005C
:10165000644B2DE9F34700F00F0206461FFA80F9AC
:10166000C0F3031001F007050C4653F822A0FFF762
:1016700013F8012D80465C4F33D1C4F383120F2A37
:1016800008BF03225146FFF782FF2A4651464046D3
:10169000013DFFF754FF012D06D814F0080218BFD2
:1016A00004225146FFF78AFF51464046C4F3011217
:1016B000FFF79BFFBB6943F00103BB61BB6903F00C
:1016C00001030193019BA9F10D03012B7CD8474A2B
:1016D000536823F0E06343F08063536002B0BDE8D9
:1016E000F087022D05D06DD8002D0CBF08220022F6
:1016F000CCE7BB6914F4705F43F00103BB61BB69C5
:10170000C4F3832203F001030093009B10D0531E07
:10171000092B0DD8DFE803F0050E151C232C353EF0
:10172000454D324A536843F0E06343F00103536090
:101730000922ABE72D4A536843F0E06343F002030C
:10174000F5E72A4A536843F0E06343F00403EEE709
:10175000264A536843F0E06343F00803E7E7234A6F
:10176000536823F0300343F0E06343F01003DEE7F7
:101770001E4A536823F0C00343F0E06343F0400384
:10178000D5E71A4A536823F4406343F0E06343F417
:101790000063CCE7154A536843F0E06343F44073B9
:1017A000C5E712494B6843F0E06343F440634B6084
:1017B0006CE70E4A536823F4C04343F0E06343F4FC
:1017C0008043B4E7002261E70F2E04D0A9F113098A
:1017D000B9F1010F82D8054A536823F0E06343F062
:1017E00000737AE72C6C00080010024000000140F2
:1017F0001C4B70B500F00F02C0F3031053F82260C9
:101800000C46FEF749FF31460546FFF7AFFE20F0D4
:10181000080001281BD1E31E022B0DD804223146FB
:101820002846FFF7CBFE032C19D10122314628466A
:10183000BDE87040FFF7D9BE002231462846FFF7C9
:10184000BDFE012CF1D0022C07D00022EEE704F0FF
:10185000FD03012BE9D0052CF5D10222E6E7052C8A
:10186000F2E700BF2C6C00084368094A9B01D3587B
:1018700082B01A68120706D5002201921A680192F6
:101880005A680192019A1868C0F3401002B070477C
:10189000B40B00204368034A9B01D3581868C0F377
:1018A000C0107047B40B00200346406810B4134AC0
:1018B0001C6881018C5002EB80109A684260DA68E3
:1018C00082601A69C2605A6902611A6A82610022E2
:1018D000C284C2618284C2858285B3F91A20013232
:1018E00004D1082310BC436101F081B8B3F918306A
:1018F00001330CBF04230C23F4E700BFB40B00201A
:101900008160FFF7D1BF0000094B98420BD0A3F5CF
:101910007443984209D003F58063984214BF4FF096
:10192000FF3002207047002070470120704700BF41
:1019300000380140F0B50E4685B004463E493046B9
:101940001546FFF7F1F93D4907462846FFF7ECF940
:1019500001463846FFF7C6F9022E20600AD0032D53
:1019600008D002203449FFF7DFF9B84242D13448A9
:10197000FFF766F801272068324B98423CD103F507
:1019800058439A6942F480429A619B6903F4804308
:101990000193019BFFF7B8FF274960603046FFF7CE
:1019A0007FF928462549FFF77BF9701C03D00121F8
:1019B0003046FFF71DFF691C03D001212846FFF7C1
:1019C00017FF00234FF416522046C4E90223C4E94E
:1019D0000433236226836583FFF766FF4FB301223A
:1019E000194B21461A604C22184805B0BDE8F0405A
:1019F00004F01EBD0027BEE7154B98420ED003F53C
:101A000080639842C6D1134BDA6942F48022DA61CE
:101A1000DB6903F480230393039BBBE70D4BDA6977
:101A200042F40032DA61DB6903F400330293029B73
:101A3000B0E705B0F0BD00BF5C690008146900089C
:101A40006C6C000800380140A8060020680B0020DC
:101A5000004400400010024038B504464568204666
:101A6000FFF702FF0028FAD0054BAD015B59E26891
:101A700058680AB9C0B238BDC0F30800FBE700BF20
:101A8000B40B002070B505460C4646682846FFF7A3
:101A900001FF0028FAD0054BEA68B6019B5912B93C
:101AA000E4B25C6070BDC4F30804FAE7B40B002034
:101AB00008488546002103E0074B5B58435004313A
:101AC0000648074B42189A42F6D300F0D3FFFEF7C0
:101AD00067FBFEE700500020F06D0008F0000020DA
:101AE000A8050020FEE77047074A08B513680320E1
:101AF00043F01003136000F0CDFA0F20FEF75CFEF8
:101B0000FFF7F1FF002008BD0020024070470000F1
:101B1000F7B5002604460D460196FEF753FE2368EE
:101B200007469A68D20508D50120A36A84F8246084
:101B300043F02003A36203B0F0BD5A68D60503D476
:101B4000DB6A13F4700F3AD03A4B02201E6800F0A3
:101B5000B3FD2368384A1969B6FBF0F61142374ADB
:101B60004ED1D868364908424AD11969114258D134
:101B7000DA68344B1A4214BF292314235E43019BB5
:101B8000B34220D26B1C05D085B1FEF71BFEC01BF3
:101B9000A8420BD8019B01330193F0E7681C0FD0DA
:101BA00025B1FEF70FFEC01BA84208D9A36A032087
:101BB00043F00403A362002384F82430BBE72268C7
:101BC00013689907EAD56FF0120322681360A36ABD
:101BD00043F40073A362936803F46023B3F5602FAA
:101BE00025D1E3681BBBA36A23F48073A362A06AB8
:101BF00010F480501BD1A36A43F00103A3629AE75B
:101C00001969114203D1D9680E4A11420BD01969E2
:101C10000D4A114209D1DB68134214BFFC2354233F
:101C2000ACE72923AAE75423A8E7FC23A6E7002072
:101C300081E700BFFC01002024499224922449122C
:101C40002449920092244900499224000368D86CE8
:101C500070470000002373B5019390F824300446C8
:101C6000012B6CD0012380F824304D680268062DCA
:101C7000086805EB850322D81F26556B053B9E405F
:101C800025EA060500FA03F32B43536309288B6802
:101C900000EB40054FF0070129D9D6681E3DA94049
:101CA00026EA0101AB400B43D360A0F11003012BE6
:101CB00025D90020002384F8243002B070BD0C2DFB
:101CC0004FF01F0509D8166B233B9D4026EA0505FA
:101CD00000FA03F32B431363D8E7D66A413B9D40D8
:101CE00026EA050500FA03F32B43D362CEE7106919
:101CF000A94020EA0101AB400B431361D9E7114B26
:101D00009A4216D193681B02D3D49368102843F4E7
:101D100000039360CDD10C4B0C4A1B68B3FBF2F26D
:101D20000A2353430193019B002BC2D0019B013B2B
:101D3000F8E7A36A012043F02003A362BAE7022078
:101D4000BBE700BF00240140FC01002040420F001F
:101D5000002373B50193036804469A68D20702D53D
:101D6000002002B070BD9A6842F001029A60124BE6
:101D7000124A1B68B3FBF2F30193019BC3B9FEF750
:101D800021FD064623689D6815F00105E8D1FEF7A0
:101D900019FD801B0228F5D9A36A012043F0100326
:101DA000A362E36A84F8245043F00103E362D8E7B6
:101DB000019B013BE0E700BFFC01002040420F0017
:101DC00010B590F824300446012B54D0012380F83C
:101DD0002430FFF7BDFF002849D1A36A274A23F426
:101DE000407323F0010343F48073A362236893429A
:101DF00004D123494A6812F4702F2ED1A26A22F42A
:101E00008012A2625A68520541BFA26A22F440526F
:101E100042F48052A262A26A12F480521CBFE26AAB
:101E200022F00602E262002284F824206FF002020F
:101E30001A609A6802F46022B2F5602F13D10F4A3B
:101E4000934205D1A2F58062526812F4702F0AD134
:101E50009A6842F4A0029A6010BDA26A42F480120D
:101E6000A2624A68CFE79A6842F48012F3E700233F
:101E700084F82430F0E70220EEE700BF002801409C
:101E80000024014038B5036804469A68D20701D49B
:101E9000002038BD9A6822F001029A60FEF792FC99
:101EA000054623689B68DB07F2D5FEF78BFC401BD9
:101EB0000228F6D9A36A012043F01003A362E36A63
:101EC00043F00103E362E4E7F8B5044600286ED06E
:101ED000836A23B9C36280F82430FFF717FE2046D7
:101EE000FFF7D0FFA36A13F0100362D1002860D17E
:101EF000A26AE569616822F4885222F0020242F087
:101F000002022943A568A262E268B5F5807F41EA32
:101F1000420137D0012D14BF00274FF48077666946
:101F2000012E06D182BBA269013A47EA423646F445
:101F300000672268B5F5807F566826F4694646EA50
:101F40000706566097681D4E06EA070646EA010630
:101F5000966001D0012D02D12369013B1B05D56A92
:101F600025F470052B43D3629268154B13409942B8
:101F700013D10023E362A36A23F0030343F00103B8
:101F8000A362F8BD2F46CAE7A26A42F02002A2620D
:101F9000E26A42F00102E262CBE7A36A23F0120395
:101FA00043F01003A362E36A43F00103E3620120FC
:101FB000E7E7A36A43F01003A362F8E7FDF7E1FF48
:101FC000FE0E1FFF002373B5019390F824300446E2
:101FD000012B5AD0012380F82430FFF753FF054628
:101FE000002832D1A36A022023F4885323F002038D
:101FF00043F00203A362264B1E6800F05DFBB6FBB4
:10200000F0F676000196019B1BBB2046FFF7A0FE71
:102010002268936843F008039360FEF7D3FB0646FB
:1020200023689A68120718D49A6842F004029A60EA
:10203000FEF7C8FB064623689B685B071FD4A36AAC
:1020400023F0030343F00103A362002384F8243048
:1020500012E0019B013B0193D5E7FEF7B3FB801B28
:102060000A28DDD9A36A012523F0120343F01003E7
:10207000A362002384F82430284602B070BDFEF726
:10208000A1FB801B0A28D6D9ECE70225F4E700BFA4
:10209000FC01002007490302CA6803F4E06322F44C
:1020A000E0621204120C134343F0BF6343F40033A5
:1020B000CB60704700ED00E003682DE9F341DB07DA
:1020C000054610D42B689F075ED42B68190700F1D2
:1020D00095802B685A0700F1BF80EA69002A40F01A
:1020E0002D81002014E0904C636803F00C03042B56
:1020F00007D0636803F00C03082B0CD16368DE0380
:1021000009D523689C03DDD56B68002BDAD101204B
:1021100002B0BDE8F0816B68B3F5803F10D1236851
:1021200043F480332360FEF74DFB06462368980393
:10213000C8D4FEF747FB801B6428F7D90320E7E7E4
:102140009BB9236823F480332360236823F480231E
:102150002360FEF737FB064623689903B2D5FEF7E6
:1021600031FB801B6428F7D9E8E7B3F5A02F23687B
:1021700003D143F480232360D1E723F48033236029
:10218000236823F48023CDE7674C636813F00C0FBA
:1021900007D0636803F00C03082B10D16368DA03DF
:1021A0000DD423689B0702D52B69012BAFD123687F
:1021B0006A6923F0F80343EAC203236085E72A69CA
:1021C0005A4B6AB101221A60FEF7FCFA06462368F0
:1021D0009F07ECD4FEF7F6FA801B0228F7D9ADE78B
:1021E0001A60FEF7EFFA0646236898077FF56DAF91
:1021F000FEF7E8FA801B0228F6D99FE7AA694A4E43
:102200004B4BDAB101221A60FEF7DCFA0446736A1E
:102210009B070DD54FF4FA52464B1B68B3FBF2F304
:10222000019300BF019B5A1E0192002BF9D150E788
:10223000FEF7C8FA001B0228E9D97FE71A60FEF70B
:10224000C1FA0446736A9F077FF543AFFEF7BAFAF7
:10225000001B0228F6D971E7334CE369D80024D477
:102260000127E36943F08053E361E36903F080539E
:102270000093009B304E3368D90518D5EB68012BCD
:1022800026D1236A43F001032362FEF79BFA41F251
:1022900088380646236A9B073FD5002F3FF41DAFC1
:1022A000E36923F08053E36117E70027E2E733682F
:1022B00043F480733360FEF785FA80463368DA05AD
:1022C000DCD4FEF77FFAA0EB08006428F6D935E7E6
:1022D000ABB9236A41F2883823F001032362236AF1
:1022E00023F004032362FEF76DFA0646236A98077B
:1022F000D3D5FEF767FA801B4045F7D91EE7052BBB
:10230000236A03D143F004032362BAE723F00103F5
:102310002362236A23F00403B6E7FEF753FA801B17
:102320004045B7D90AE700BF001002400000424212
:1023300080044242FC01002000700040224C63688F
:1023400003F00C03082B3FF4E2AE00231F4E022AD9
:1023500033602BD1FEF736FA0746236899011FD464
:102360002B6AB3F5803F05D16268A96822F4003278
:102370000A436260696A62680B4322F47412134371
:10238000636001233360FEF71DFA054623689A0156
:102390003FF5A7AEFEF716FA401B0228F6D9CDE6A8
:1023A000FEF710FAC01B0228D7D9C7E6FEF70AFAD3
:1023B000054623689B017FF594AEFEF703FA401BA8
:1023C0000228F6D9BAE600BF00100240600042427F
:1023D00030B5184B87B002AC03F1100522461868DF
:1023E0005968083303C2AB421446F7D140F20123C7
:1023F0001149ADF804304B6803F00C02082A17D1DC
:10240000C3F3834206A80244DB0312F8102C0CD558
:102410004B680A48C3F34043504306AA134413F8D9
:10242000143CB0FBF3F007B030BD05485043FAE769
:102430000248F8E7A16C00080010024000127A0080
:1024400000093D004C4A2DE9F0411368044603F0B1
:1024500007038B420D4627D32268910731D4D20758
:1024600037D4454A136803F00703AB4271D822689A
:10247000424D12F0040F77D1130706D56B6822691D
:1024800023F4605343EAC2036B60FFF7A1FF6B685C
:102490003B4AC3F30313D35CD8403A4B18600F2078
:1024A000FEF78AF900200AE0136823F007030B43C4
:1024B0001360136803F007038B42CDD00120BDE801
:1024C000F0812E49A0684B6823F0F00303434B6072
:1024D000C5E76268294E012A33681BD113F4003F17
:1024E000ECD0736841F2883823F003031343736020
:1024F000FEF768F963680746012B13D1736803F090
:102500000C03042BADD0FEF75DF9C01B4045F5D997
:102510000320D4E7022A02D113F0007FE0E713F092
:10252000020FDDE7022B0FD1736803F00C03082BB9
:1025300097D0FEF747F9C01B4045F5D9E8E7FEF70D
:1025400041F9C01B4045E3D8736813F00C0FF6D176
:1025500087E7136823F007032B431360136803F026
:102560000703AB42AAD182E76B68E16823F4E0631A
:102570000B436B6080E700BF002002400010024068
:10258000C66C0008FC010020044B054A5B68C3F3DD
:102590000223D35C034A1068D84070470010024001
:1025A000D66C0008FC010020044B054A5B68C3F3AD
:1025B000C223D35C034A1068D84070470010024021
:1025C000D66C0008FC01002003682DE9F341D9070F
:1025D000054620D5354CE369DA0032D40127E3699A
:1025E00043F08053E361E36903F080530193019B5F
:1025F0002F4E3368DB0526D5236A13F4407336D19A
:10260000236A6A6823F44073134323621FB1E369AA
:1026100023F08053E3612868830706D52349AB681C
:102620004A6822F440421A434A6010F010001BD05E
:102630001E4AE9685368002023F480030B4353606B
:1026400012E00027D4E7336843F480733360FEF769
:10265000B9F880463368D805CED4FEF7B3F8A0EBBE
:1026600008006428F6D9032002B0BDE8F0816A684A
:1026700002F440729A42C3D001200E4A236A1060CD
:10268000002023F4407110602162D907B8D5FEF70D
:1026900099F841F288380646236A9A07B0D4FEF7C3
:1026A00091F8801B4045F7D9DDE700BF00100240DC
:1026B0000070004040044242024670B5344B86B080
:1026C00002AD03F110062C4618685968083303C49C
:1026D000B3422546F7D140F20123022AADF8043077
:1026E00049D0102A03D0012A26D0002038E0294BF7
:1026F0005968186810F0807032D0C1F3834206A880
:10270000024412F8100CCA0341BF5A6806A9C2F36A
:102710004042521844BF12F8141C1F4A5B684CBF59
:10272000B2FBF1F21D4A5B0202FB00F018D4032356
:102730004000B0FBF3F013E040F20231154A136A97
:102740001940B1F5817F1FD003F44073B3F5007FCA
:1027500008D149F64043506A10F0020018BF1846ED
:1027600006B070BDB3F5407FBFD110684FF224436F
:1027700010F40030F2E7FFF717FF064B5B68C3F376
:10278000813301335B00D4E74FF40040E8E700BF3A
:10279000A16C00080010024000127A0000093D0000
:1027A00070470223026880F83D30136843F001034C
:1027B0001360012380F83D30002070471A4A0368F7
:1027C00090420AD0B0F1804F07D0A2F594329042E7
:1027D00003D002F58062904215D14A6823F070035D
:1027E0001343114A90420AD0B0F1804F07D0A2F5AE
:1027F0009432904203D002F58062904203D1CA68BD
:1028000023F4407313434A6923F0800313430360A6
:102810008B68C3620B688362034B984204BF0B69E9
:102820000363012343617047002C014010B5044647
:10283000A0B190F83D3003F0FF021BB980F83C20B6
:10284000FFF7AEFF0223206884F83D30211DFFF71B
:10285000B5FF0123002084F83D3010BD0120FCE7C6
:1028600010B50124036A8C4023EA04030362036A5F
:102870008A401A43026210BD10B504460122006866
:10288000FFF7EEFF2368064A0020934202BF5A6C0E
:1028900042F400425A641A6842F001021A6010BD04
:1028A000002C01402DE9F84380460368C1681A698D
:1028B000192422F440520A431A6182680069D968D7
:1028C0000243D8F8140021F4B05121F00C01024366
:1028D0000A43DA605A69D8F8181022F440720A43A1
:1028E0005A61414A93424AD1FFF75EFE04FB00F36E
:1028F000D8F804506427AD00B3FBF5F3B3FBF7F34E
:102900001D01FFF751FE04FB00F3D8F80460B60088
:10291000B3FBF6F6FFF748FE04FB00F3D8F80420FB
:102920009200B3FBF2F3B3FBF7F307FB13631B0156
:102930003233B3FBF7F303F0F006FFF735FE04FB89
:1029400000F3D8F804209200B3FBF2F9FFF72CFE55
:102950004443D8F80430D8F800209B00B4FBF3F3CC
:10296000B3FBF7F307FB13931B013233B3FBF7F30E
:1029700003F00F0333432B449360BDE8F883FFF764
:1029800003FE04FB00F3D8F804506427AD00B3FB4A
:10299000F5F3B3FBF7F31D01FFF7F6FD04FB00F3BE
:1029A000D8F80460B600B3FBF6F6FFF7EDFD04FBC4
:1029B00000F3D8F804209200B3FBF2F3B3FBF7F373
:1029C00007FB13631B013233B3FBF7F303F0F0068D
:1029D000FFF7DAFD04FB00F3D8F804209200B3FB04
:1029E000F2F9FFF7D1FDB3E700380140704710B5A9
:1029F000044640B390F8393003F0FF021BB980F869
:102A00003820FFF7F3FF2423226884F83930D36895
:102A1000204623F40053D360FFF744FF23680020CF
:102A20001A6922F490421A615A6922F02A025A6104
:102A3000DA6842F40052DA602023E06384F8393027
:102A400084F83A3010BD0120FCE77FB502210F2346
:102A50004FF48062CDE90131002301A8CDE90332B2
:102A60000593FFF7EFFCB0FA80F0400907B05DF87E
:102A700004FB00000F4B1A6842F001021A6059680B
:102A80000D4A0A405A601A6822F0847222F4803299
:102A90001A601A6822F480221A605A6822F4FE0230
:102AA0005A604FF41F029A604FF00062034B9A6025
:102AB000704700BF001002400000FFF800ED00E08A
:102AC000012310B500288AB000930CBF4FF4803367
:102AD0004FF4A023022201934FF480330024CDE968
:102AE00007234FF4E013684602940993FFF7E4FAD2
:102AF00018B9FFF7AAFF0AB010BD2046FBE7032371
:102B000010B58AB000930123049310230024059389
:102B10000223CDE907344FF460136846019409930A
:102B2000FFF7CAFA18B9FFF790FF0AB010BD2046A8
:102B3000FBE7000008B50120FFF7C2FF28B9FFF747
:102B4000DEFF10B90148FDF77BFF08BDB26C00083D
:102B5000104B11495A6802F00C02082A0AD00F4A99
:102B60000A605B680E4AC3F30313D25C0B68D34060
:102B70000B6070475A685868C2F38342C00302F181
:102B8000020202D407484243EAE758688003F9D4B6
:102B90000248F8E700100240FC01002000127A0011
:102BA000C66C000800093D00074B084A13601A690B
:102BB000910707D5DA68920704D56FF002021A610F
:102BC000FEF7A4BC704700BF00080040780C00204E
:102BD00000487047E06C0008224B37B5DA69224C98
:102BE00042F00402DA61DA69002502F0040201927F
:102BF000019A1A6942F004021A611A6922F0040269
:102C00001A61FFF7A5FF194B194A23604FF6FF73AE
:102C1000E360184B20461B68C4E90555B3FBF2F38B
:102C2000013B63602561A560FFF700FE2946204651
:102C3000FFF722FE104B114A9B68C3F8B8204FF0F3
:102C400080420F4B1A602046FFF7ABFD2268D36825
:102C500023F00203D3600B4B1D600B4B1D6003B0D0
:102C600030BD00BF00100240780C0020000800407A
:102C700040420F00FC01002000ED00E0A92B0008FD
:102C800000E100E0D8050020D40500200448002120
:102C90000268D36823F00203D360FFF7EDBD00BFE5
:102CA000780C0020014B586A704700BF00080040B4
:102CB0006FF00202044B1B6858631A61DA6842F035
:102CC0000202DA60704700BF780C00206FF0020249
:102CD000054B1B681A615A6942F002025A61DA68B0
:102CE00042F00202DA607047780C0020034B1A6849
:102CF000D36823F00203D360704700BF780C002034
:102D00006FF00202014B1B681A617047780C0020BB
:102D100010B584B001902949019A13465B00134411
:102D20009B000B4408331B78002B2DD13820FEF775
:102D3000CBF903461C462149019A13465B00134414
:102D40009B000B44B3F9003019462046FDF794FA76
:102D50001A49019A13465B0013449B000B44043349
:102D60001C601649019A13465B0013449B000B44F8
:102D7000083303221A70019A13465B0013449B0028
:102D80000E4A1344039315E00C49019A13465B0065
:102D900013449B000B4408331B78032B08D1019A82
:102DA00013465B0013449B00044A1344039301E061
:102DB00000230393039B184604B010BDB00200200B
:102DC00084B003900B4601928DF80B3000BF04B025
:102DD000704700B589B00390029113468DF8073013
:102DE000039B0593059B002B0DD0059B5B68184644
:102DF000FDF718FA0346184601F0B4FE02460B46EA
:102E0000CDE9062305E04FF000024FF00003CDE9C5
:102E100006230299DDE90623C1E9002300BF09B0BA
:102E20005DF804FB82B0019000BF02B0704782B031
:102E300001900091009B002B05D0019B9B68019A9B
:102E400012681A6004E0019BDB68019A12681A603C
:102E500000BF02B0704782B00190019B5B681A68A6
:102E6000019B1B681340002B01D0012300E00023CD
:102E7000184602B0704700B583B001900B46ADF81C
:102E80000230019B1A460023136053609360D360A5
:102E9000136153619361019BBDF9022011461846ED
:102EA000FDF7D8FE019B184603B05DF804FB00B5A2
:102EB00083B00190019B1846FFF7CDFF03461846EB
:102EC00003B05DF804FB00B583B001900B46ADF88C
:102ED0000230019B1A460023136053609360D36055
:102EE000136153619361019BBDF90220114618469D
:102EF000FDF7C3FE019B184603B05DF804FB00B567
:102F000083B001900091019B00991846FFF78FFF55
:102F100000BF03B05DF804FB10B584B001900B4610
:102F20008DF80330002303935849019A13465B0040
:102F300013449B000B4408331B78002B5BD19DF896
:102F40000330002B25D11C20FEF7BEF803461C469B
:102F50004E49019A13465B0013449B000B44B3F99E
:102F6000003019462046FFF786FF4849019A13466C
:102F70005B0013449B000B4404331C604349019ADB
:102F800013465B0013449B000B44083301221A7064
:102F900028E09DF80330012B24D11C20FEF794F883
:102FA00003461C463949019A13465B0013449B00B3
:102FB0000B44B3F9003019462046FFF784FF33492C
:102FC000019A13465B0013449B000B4404331C60BE
:102FD0002E49019A13465B0013449B000B440833AF
:102FE00002221A70019A13465B0013449B00274A81
:102FF0001344039345E02549019A13465B001344AB
:103000009B000B4408331B78012B0CD19DF8033037
:10301000002B08D1019A13465B0013449B001B4A06
:10302000134403932DE01949019A13465B0013449E
:103030009B000B4408331B78022B0CD19DF8033006
:10304000012B08D1019A13465B0013449B000F4AE1
:103050001344039315E00D49019A13465B00134492
:103060009B000B4408331B780A2B08D1019A1346A6
:103070005B0013449B00054A1344039301E00023C3
:103080000393039B184604B010BD00BFB00200209C
:1030900000B585B00190019B0293029B002B15D0D7
:1030A000029B1B7A0A2B08D1029B5B681846FDF72E
:1030B00022F903468DF80F300BE0029B5B6818463F
:1030C000FFF7F5FE03468DF80F3002E000238DF880
:1030D0000F309DF80F30184605B05DF804FB00B5C1
:1030E00085B001900B468DF80330019B0393019B43
:1030F000002B07D0039B5B689DF803201146184600
:10310000FFF7FDFE00BF05B05DF804FB00B583B01E
:10311000019000F0E7F802460B461249C1E900238E
:1031200000F00AF90346104A136000F075F80246F1
:103130000B460E49C1E9002300F098F803460C4AFB
:10314000136000F09BF802460B460A49C1E90023D0
:1031500000F0BEF80346084A136000BF03B05DF8F4
:1031600004FB00BFA0090020B00900209009002046
:10317000A809002098090020AC09002000B587B0FC
:10318000CDE9000100238DF8173040230493049B00
:10319000202B0BD1DDE9000102F014F8034618469C
:1031A00000F024F803468DF8173016E0DDE900231F
:1031B000CDE90223039A0C4B13400B4A934209D1E9
:1031C000039BC3F31303002B02D1029B002B01D0FE
:1031D000012300E000238DF817309DF817301846C2
:1031E00007B05DF804FB00BF0000F07F84B00190E1
:1031F000019B0393039B03F0FF43B3F1FF4F06D101
:10320000039BC3F31603002B01D0012300E000232E
:10321000DBB2184604B0704700B587B04023039373
:103220004FF000024FF00003CDE90423039B202B55
:103230000AD100F01BF80346184601F093FC024641
:103240000B46CDE9042307E0074B019300230093CD
:10325000DDE90023CDE90423DDE904231046194606
:1032600007B05DF804FB00BF0000F07F82B04FF0B4
:10327000FF430193019B184602B0704700B587B029
:10328000402303934FF000024FF00003CDE90423E5
:10329000039B202B0AD100F01BF80346184601F0CF
:1032A00061FC02460B46CDE9042307E0074B01937E
:1032B00000230093DDE90023CDE90423DDE90423A5
:1032C0001046194607B05DF804FB00BF0000F0FF90
:1032D00082B0034B0193019B184602B0704700BFB8
:1032E000000080FF00B587B0402303934FF0000239
:1032F0004FF00003CDE90423039B202B0AD100F0FB
:103300001BF80346184601F02DFC02460B46CDE99A
:10331000042307E0074B019300230093DDE900231A
:10332000CDE90423DDE904231046194607B05DF812
:1033300004FB00BF0000F8FF82B04FF000030193D0
:10334000024B0193019B184602B070470000C0FF7A
:10335000F0B599B00190019BDB6F1B68D3E90023A6
:10336000CDE91423019BD3E90623CDE91223019B68
:103370001B6AD3E90023CDE91023019BD3F88430E5
:103380001B680F93019B9B680E930E9B1B680D930C
:103390000E9B5B680C930E9B9B680B930E9BDB68EC
:1033A0000A9302230993019B5B6800221A70099B10
:1033B000DB001A460F990D9803F03AF8019B9B6FBA
:1033C0000C9A1A6000F000FDA74BD3E90001DDE97B
:1033D000102301F01FFC02460B46CDE90223002317
:1033E000179324E0179BDB000D9A1344D3E90045A3
:1033F000179BDB000C9A1344D3E90001DDE902239B
:1034000001F008FC02460B4610461946179BDB00EC
:103410000F9AD61802460B462046294601F044FA78
:1034200002460B46C6E90023179B01331793179AF0
:10343000099B9A42D6DB8D4BD3E90001DDE91023CD
:1034400001F0E8FB02460B4610461946019BDB6F74
:103450001C68DDE9142301F027FA02460B46C4E993
:103460000023019B9B6F0B9A1A6000F001F900F09A
:10347000ABFC0023179316E07B4A179B0333DB005A
:103480001344D3E90001DDE9102301F0C3FB024638
:103490000B461799C900603169445839C1E90023C6
:1034A000179B01331793179B012BE5DD002317931F
:1034B00038E0179BDB000D9A1344D3E90045179BB6
:1034C000DB000C9A1344D3E90001DDE9022301F08B
:1034D000A1FB02460B4616461F46179BDB000B9AC4
:1034E0001344D3E90001DDE9042301F093FB024614
:1034F0000B463046394601F0D7F902460B461046D6
:103500001946179BDB000F9AD61802460B46204639
:10351000294601F0C9F902460B46C6E90023179B6C
:1035200001331793179A099B9A42C2DB4F4BD3E999
:103530000201DDE9102301F06DFB02460B46104647
:103540001946019BDB6F1C68DDE9142301F0ACF91F
:1035500002460B46C4E90023019B9B6F0A9A1A603E
:1035600000F086F800F030FC0023179316E03E4A86
:10357000179B0633DB001344D3E90001DDE9102378
:1035800001F048FB02460B461799C90060316944B7
:103590005839C1E90023179B01331793179B022B5E
:1035A000E5DD002317934CE0179BDB000D9A1344D5
:1035B000D3E90045179BDB000C9A1344D3E90001C3
:1035C000DDE9022301F026FB02460B4616461F46A4
:1035D000179BDB000B9A1344D3E90001DDE90423B8
:1035E00001F018FB02460B463046394601F05CF903
:1035F00002460B4616461F46179BDB000A9A1344E9
:10360000D3E90001DDE9062301F004FB02460B4685
:103610003046394601F048F902460B461046194635
:10362000179BDB000F9AD61802460B462046294608
:1036300001F03AF902460B46C6E90023179B013315
:103640001793179A099B9A42AEDB019BDB6F1968AF
:10365000DDE91223C1E90023019B5B6801221A7096
:1036600000BF19B0F0BD00BFF86C0008406D000845
:10367000F0B58BB0784B93F8A831012B10D1764B75
:10368000D3F888310133184601F04AFA724BD3E976
:103690006423714E01F0BEFA02460B46C6E90823C8
:1036A0006D4B93F8A831002B0AD16B4BD3F88430C3
:1036B0001B68694AD2F8AC11D3E90023C1E90023A1
:1036C000664BD3E92001644BD3F8AC31D3E9002336
:1036D00001F0A0FA02460B46CDE902235F4BD3E985
:1036E0001C015BA3D3E9002301F01AFD0346002B64
:1036F00009D15A4BD3E91C2310461946FFF73EFD6A
:103700000346002B05D052A3D3E90023CDE90823BB
:1037100004E0524BD3E91C23CDE908234FF000020B
:103720004FF00003DDE9080101F0F0FC0346002B37
:1037300005D04FF000024FF00003CDE90823DDE98A
:103740000267DDE902231046194600F0D9FE024661
:103750000B463046394601F0A5F802460B461046A6
:1037600019464FF000023E4B01F0DAFC0346002BF5
:1037700005D03A4BD3E91E23CDE9022307E0374BAE
:10378000D3E91E23144683F00045CDE90245DDE967
:1037900002014FF00002334B01F0A4FC0346002B62
:1037A00035D04FF00002304BDDE9080101F05CFB41
:1037B00002460B461046194600F0A2FE02460B4692
:1037C0001046194601F0D6FC034601330793002347
:1037D000069312E0069A13469B0013445B001A46B8
:1037E000079B1344013B214AD1566A46069B13446A
:1037F0000A461A70069B01330693069B062BE9DDE9
:103800004FF000024FF00003CDE9022357E04FF0E4
:1038100000024FF00003DDE9080101F063FC0346FC
:10382000002B06D04FF000024FF00003CDE9022339
:103830000AE04FF000020C4BDDE9080100F034FE15
:1038400002460B46CDE90223002307932FE000BF79
:103850000000000000C05840D007002000020020F7
:103860000000E03F0000F03F00002440586D0008D9
:10387000DDE902014FF00002AC4B01F015F8024601
:103880000B461046194601F075FC0146079A13468F
:103890009B0013445B000B44013BA54AD1566A468A
:1038A000079B13440A461A70079B01330793079B33
:1038B000062BDDDD4FF000029C4BCDE902239D4B32
:1038C000D3F8C4209DF90030002B14BF012300233E
:1038D000DBB219461046FFF702FC964BD3F8B42032
:1038E0009DF90130002B14BF01230023DBB21946E0
:1038F0001046FFF7F4FB8F4BD3F8A4209DF902305C
:10390000002B14BF01230023DBB219461046FFF73A
:10391000E6FB884BD3F894209DF90330002B14BFAD
:1039200001230023DBB219461046FFF7D8FB814B79
:10393000D3F884209DF90430002B14BF0123002309
:10394000DBB219461046FFF7CAFB7A4B5A6F9DF956
:103950000530002B14BF01230023DBB219461046AB
:10396000FFF7BDFB734B5A6E9DF90630002B14BF59
:1039700001230023DBB219461046FFF7B0FB6D4B65
:103980005C6DDDE9020101231D464FF000024FF09E
:10399000000301F0A7FB0346002B01D000231D46C6
:1039A000EBB219462046FFF79AFB634B93F8A83118
:1039B000012B05D1614BD3E90C235E49C1E93223C8
:1039C0005C4BD3F8F830002B05D05A4BD3E93223A7
:1039D0005B49C1E90023574BD3E90401574BD3E9B5
:1039E000122301F07FFB0346002B05D1534BD3E993
:1039F00012235049C1E904234E4BDB681846FFF7F8
:103A000011FA4C4BDB6802A907221846FFF7E1F9CF
:103A10004A4BD3E91001494BD3E9042300F042FF9C
:103A200002460B4610461946444BD3E9062301F0E3
:103A30001BFA02460B4610461946DDE9022301F047
:103A4000E9F802460B461046194600F059FD0246B9
:103A50000B461046194601F08DFB0346184601F04F
:103A60006FF8364BD3E9042300F01EFF02460B46E5
:103A700010461946324BD3E9002300F013FF0246EB
:103A80000B462C49C1E934232B4B93F8A831012B69
:103A90000CD12A4BD3E90201284BD3E90E2301F0C4
:103AA000E3F902460B462349C1E93623214BD3E90A
:103AB0003401224BD3E9022301F0ACF802460B4655
:103AC00014461D461B4BD3E936011D4BD3E9022397
:103AD00001F0A0F802460B462046294600F0E4FE1D
:103AE00002460B46CDE90223FF238DF81730124B17
:103AF000DB681B78012B04D00F4B93F8FC30002BB4
:103B00002DD0DDE902014FF000020E4B01F0F4FA76
:103B10000346002B1AD1DDE902014FF000020A4BE7
:103B200001F008FB0346002B13D00FE00000F03F2C
:103B3000586D0008C8060020D007002000020020B1
:103B4000B006002000001440000014C000238DF8CF
:103B50001730974A9DF8173082F8FC3004E0944BF8
:103B600093F8FC308DF817309DF91730002B0AD1EF
:103B7000904B93F8A831012B05D18F4BD3E9242327
:103B80008B49C1E93C23FF238DF81730894BDB6853
:103B90001B78012B04D0874B93F8FC30002B1ED0F0
:103BA000864BD3E900014FF00002854B01F0A4FAE7
:103BB0000346002B0AD1814BD3E900014FF00002EC
:103BC000804B01F0B7FA0346002B02D000238DF89A
:103BD0001730774A9DF8173082F8FD3004E0744BB7
:103BE00093F8FD308DF817309DF91730002B0AD16E
:103BF000704B93F8A831012B05D16F4BD3E92623E5
:103C00006B49C1E93A236B4B93F8A831012B1ED1C4
:103C1000674BD3E93C014FF000024FF0000301F085
:103C200061FA0346002B0DD1614BD3E93A014FF005
:103C300000024FF0000301F055FA0346002B01D1BA
:103C4000012300E00023DAB2594B83F8FE20584BE1
:103C5000D3E91001584BD3E9142301F043FA03468A
:103C6000002B05D1544BD3E914235149C1E910234A
:103C70004F4BDB6B1846FFF70BFA03468DF81630F7
:103C80004C4B93F8A831012B27D1494BD3E90A01BA
:103C9000494BD3E9162301F025FA0346002B05D141
:103CA000454BD3E916234249C1E90A23404B5B6ADD
:103CB0001846FFF7EDF903468DF815303D4BDB68EC
:103CC0001B78012B04D03B4B93F8FC30002B04D025
:103CD000374A9DF8153082F80031354B93F80031A2
:103CE000002B04D0324A9DF8163082F8FF30304B5A
:103CF00093F8FE30002B04D02D4B93F8FF30002BAF
:103D000004D12D4BD3E92823CDE90223DDE9024577
:103D10002A4BD3E90001284BD3E90A2300F0C2FD66
:103D200002460B4610461946234BD3E9082301F0FF
:103D30009BF802460B462046294600F0B3FD02469A
:103D40000B46104619461C4BD3E9002301F08CF8B2
:103D500002460B461649C1E93823164B93F8A831A1
:103D6000012B03D1124B0022C3F8F820114B93F81A
:103D7000A831012B18D10F4B08331846FFF7E8FA8A
:103D80000C4BD3F888210132C3F88821094B094A2A
:103D9000D2F8AC11D3E90823C1E90023054BD3F8CD
:103DA00098210132C3F8982100BF0BB0F0BD00BFCD
:103DB000C8060020D007002000020020B006002026
:103DC00000004940000034C082B0094BD3F81C31D8
:103DD0000193084BD3E938230199C1E90023054B2E
:103DE000D3E934230199C1E9022300BF02B070472F
:103DF000D0070020C806002008B50820FFF786F984
:103E0000B54BB54A03F5D473D360B34BB24A03F54F
:103E1000D673C2F88430B04BAF4A03F5C8739362CF
:103E2000AD4BAD4A03F58E73C2F88030AA4BAA4A57
:103E300003F58873C2F88C30A74BA74A03F5BC730F
:103E4000C2F88830A44BA44A03F5BE73C2F8903080
:103E5000A14BA14A03F58A73C2F894309E4B9E4A47
:103E600003F58C73C2F898309B4B9B4A03F5907313
:103E7000C2F80831984A984BC3F8D020964B964A1E
:103E80009A60954BDB6801221A70934B002283F8ED
:103E9000FC20914B904A03F59473C2F868318E4B25
:103EA0008D4A03F59C73C2F86C318B4B8A4A03F53B
:103EB000A473C2F87031884B874A03F5AC73C2F81B
:103EC0007431854B854AC3F81021834B844AC3F86B
:103ED000202181494FF000024FF00003C1E968231F
:103EE0007D4B7D4A03F5B47313617B4B7D4A5A6168
:103EF000794B794A03F5D873C2F8AC31764974A38B
:103F0000D3E90023C1E96423734B012283F89C2188
:103F1000754BD3E90C237549C1E93223734BFF225A
:103F200083F8FC20714BFF2283F8FD206A4B93F845
:103F30009C31002B05D069494FF000026C4BC1E960
:103F400000236A4B0122C3F8F820674BD3E92223F0
:103F50006249C1E90223644BD3E918236349C1E9EB
:103F60003C23614BD3E91A236049C1E93A235E4BF4
:103F700093F8A8205D4B83F8FF205C4B002283F868
:103F8000B8205A4B0122C3F8BC2001210D20FEF7B6
:103F9000C3FF0346554AC2F8C430544B012283F88C
:103FA000C020524B002283F8A820504B0122C3F8B6
:103FB000AC2001210C20FEF7AFFF03464B4AC2F8AC
:103FC000B4304A4B012283F8B020484B002283F8DA
:103FD0009820464B0122C3F89C2001210B20FEF7BC
:103FE0009BFF0346414AC2F8A430404B012283F8AC
:103FF000A0203E4B002283F888203C4B0122C3F8CE
:104000008C2001210720FEF787FF0346374AC2F8BC
:104010009430364B012283F89020344B002283F8F1
:104020007820324B0122DA6701210820FEF774FF65
:1040300003462E4AC2F884302C4B012283F880209C
:104040002A4B002283F86820284B0122DA660121DE
:104050001A20FEF761FF0346244A5367234B0122CF
:1040600083F87020214B002283F858201F4B012237
:10407000DA6501210E20FEF74FFF03461B4A536607
:104080001A4B012283F86020184B002283F8482045
:10409000164B0122DA6401211320FEF73DFF03468F
:1040A000124A5365114B012283F850200F4B002216
:1040B0001A700D4BD3E912230C49C1E904230B4BB1
:1040C00001225A601020FEF723FE034612E000BFD3
:1040D0004F1BE8B4814E6B3FD0070020B006002094
:1040E000C0060020EC6C000800020020C80600207A
:1040F00000002440224AD360214BDB6800220021CB
:104100001846FEF75DFE1E4B01221A721C4B002260
:1041100083F830201B4BD3E914231949C1E910233C
:10412000174B01225A6300210220FEF7F5FE0346D9
:10413000134AD363124B012283F83820104B00221C
:104140001A76104BD3E916230D49C1E90A230C4B0B
:104150000122DA6100210320FEF7DEFE0346084A51
:104160005362074B012283F82020074B93F89C31C0
:10417000002B03D0044B002283F89C2100BF08BD14
:10418000C806002000020020D007002008B50F4B11
:104190001B785A1CD1B20D4A1170002B09D00C4B60
:1041A00001221A60094B1B78013BDAB2074B1A70E7
:1041B0000BE062B600BFFFF75BFA72B600BF034BBD
:1041C0001B78013BDAB2014B1A7008BDB809002018
:1041D000B409002000B583B0284B0193284B00930D
:1041E000284B00221A70284B00221A7001DFFDF7BD
:1041F0007BFCFEF7ADFC254B1B6800221A60FFF725
:10420000FBFD019800F0BAF8204B1B681B68002BDF
:1042100007D11E4B1B6893F8A931002B01D1012354
:1042200000E00023DAB2184B1A7062B600BF1BE040
:10423000164B1B681B68002B05D1144B1B6893F8A9
:10424000A931002B01D0012300E00023DAB20D4B8D
:104250001A700C4B1B78DBB2002B0CBF0123002320
:10426000DBB21A46084B1A70074B1B78DBB2002BE7
:10427000DED10023184603B05DF804FB0E745A3BF0
:1042800000009042B9090020BA090020E86C00083B
:1042900082B0034600918DF807309DF90730002B5E
:1042A0000ADB009BDAB20C499DF907301201D2B249
:1042B0000B4483F800230BE0009BDAB207499DF81A
:1042C000073003F00F03043B1201D2B20B441A76FD
:1042D00000BF02B0704700BF00E100E000ED00E069
:1042E00000B583B00190019B013BB3F1807F01D306
:1042F00001230FE0094A019B013B53600F214FF05E
:10430000FF30FFF7C5FF054B00229A60034B0722E1
:104310001A600023184603B05DF804FB10E000E0CB
:1043200008B5BFF34F8F00BFBFF36F8F00BF0C4BBB
:104330001A680C4B1B689A4202D3094B00221A6080
:10434000074B1B685A1C06490A60002B05D172B640
:1043500000BFFFF71BFF62B600BF00BF08BD00BF74
:10436000BC090020C0090020034B5B68024A43F0EF
:104370008053536000BF704700ED00E000B585B08A
:104380000190234B1B68184601F022F8034601995F
:10439000184601F075F80346184601F0C1F90346C6
:1043A0000393039BB3F1807F18D3039801F010F8B7
:1043B00003461849184601F017F90346184601F05C
:1043C000AFF903460133144A1360134B1B68039A79
:1043D000B2FBF3F31846FFF783FF05E00E4B002214
:1043E0001A600398FFF77CFF0C4B00221A600C4AFE
:1043F0000C4B1A600F216FF00400FFF749FF0F21EB
:104400006FF00100FFF744FF00BF05B05DF804FB4B
:10441000FC010020FFFF7F4BC0090020BC090020E9
:1044200021430008C4090020EFF3008001B5EFF339
:10443000118003B40A48006803B488B00FF210007A
:1044400006904FF0807007906FF006008646704728
:1044500003BC8047BFF36F8F00DFFEE700BF0000A3
:10446000C40900201EF0040F0CBFEFF30880EFF327
:104470000980816911F8020C10B1012809D007E008
:1044800008B003BC80F3118803BC80F300880847A0
:10449000FEE74EF61451CEF200010A6842F0010226
:1044A0000A607047F4E700BF2DE9F843804689466B
:1044B00014461D4600F0A8F8224606460F46404620
:1044C00049462B4600F040FE30B9204629460022DE
:1044D000002300F007FE18B930463946BDE8F883DE
:1044E00001F06CFF002200232121016010461946D3
:1044F00000F0BAFC06460F4630463946BDE8F88360
:10450000C1F30A522DE9F843A2F2FF35132D0B46F1
:1045100084460C460646074632DC002D20DB384A2E
:10452000884642FA05F901EA0902024314D032A38F
:10453000D3E9002300F0B8F90022002300F0FAFDCF
:1045400040B1002C03DA4FF480132B41984400262D
:1045500028EA09042346B44660461946BDE8F883B4
:1045600025A3D3E9002300F09FF90022002300F0E7
:10457000E1FD0028EED0002C26DB00263446E9E7DA
:10458000332D08DDB5F5806FE6D1024600F08CF9D9
:1045900084460B46E0E74FF0FF38A2F2134228FAB8
:1045A00002F810EA080FD7D013A3D3E9002300F0D4
:1045B0007BF90022002300F0BDFD0028CAD0002CAA
:1045C0000EDB27EA0806C5E724F0004434430D4B10
:1045D000002C4FF000060CBF4FF000441C46B9E71A
:1045E000142D06D00123C5F13405AB401F44BE4253
:1045F000E7D90134E5E700BF9C7500883CE4377ECD
:10460000FFFF0F000000F0BF2DE9F84323F0004743
:104610009E469C4657EA0203054690462FD0104618
:104620001446984A21F0004991450B4627DC424246
:10463000954E024347EAD272B24220D8B945AE46FF
:104640002A4601F0004606DCC0F2CB804545C0F0AA
:10465000C88000F0FF808C491940F9B9B9F1000F0A
:1046600040F0E280BEF1000F754640F30881A1F2F0
:1046700013416D00002D01F1FF31FADC12E07346A9
:104680004246284600F0C6FA0B46024600F0ECFB14
:1046900005460B4628461946BDE8F8834FEA2951DE
:1046A000A1F2FF31784D0CEA050585B9002F40F0E5
:1046B000AC800028804640F3E080A5F213454FEA25
:1046C0004808B8F1000F05F1FF35F8DC02E03D15B0
:1046D000A5F2FF35DFF8B481414572DBC3F3130364
:1046E00043F48013DFF8A4E1754559DBCCF3130CD8
:1046F0004CF4801C101A491B0BD11DE050EA0E032C
:1047000044D04FEADE73013903EB40034FEA4E0217
:1047100011D0A3EB0C00944288BF00F1FF300028B9
:10472000A2EB040E4FEAD277E8DA013907EB430334
:104730004FEA4202EDD1101BA3EB0C0C944288BF50
:104740000CF1FF3CBCF1000FA4BF0246634653EAE4
:10475000020105D11AE0D10F01EB43035200013DE4
:10476000B3F5801FF7DB49498D4269DA491B1429EB
:1047700076DC05F21E40CA4003FA00F043FA01F16C
:104780000E4340EA02031D46334683E7404BF60FD3
:1047900003EBC603D3E9005328461946BDE8F88366
:1047A000AEEB05041F2C24DD3A4C491BA4EB050C91
:1047B00000FA0CFC18BF0024ABD11046A3EB0C0C84
:1047C000C0E7A8EB0108B8F11F0F0CDC01F21E4393
:1047D00009FA08F92EFA03F30EFA08F243EA09037C
:1047E00080E70B4656E72B4B00225B1A0EFA03F3C9
:1047F00078E705F21E4C07FA04FE20FA0CFC00FADA
:1048000004F44CEA0E0C101B75E74FEAC728B8F108
:10481000000F1E4D7FF75EAF4FEA4808B8F1000F5A
:1048200005F1FF35F8DC55E74FEAC925002D17499A
:104830007FF738AF6D00002D01F1FF31FADC31E771
:10484000A3F58013334305F2FF3543EA05510B46C8
:1048500015461FE70E4B03EB1673D3E9005319E718
:104860001F2906DC05F21E4022FA01F183400B43AA
:1048700089E7084A521B134185E7074D2AE7064995
:1048800010E700BFFFFFEF7F0000F07F02FCFFFF9B
:10489000A06D0008E2FBFFFFEDFBFFFF81F0004190
:1048A00002E000BF83F0004330B54FEA41044FEA15
:1048B000430594EA050F08BF90EA020F1FBF54EAB0
:1048C000000C55EA020C7FEA645C7FEA655C00F04C
:1048D000E2804FEA5454D4EB5555B8BF6D420CDD1D
:1048E0002C4480EA020281EA030382EA000083EAA0
:1048F000010180EA020281EA0303362D88BF30BD40
:1049000011F0004F4FEA01314FF4801C4CEA113195
:1049100002D0404261EB410113F0004F4FEA0333F4
:104920004CEA133302D0524263EB430394EA050F7F
:1049300000F0A780A4F10104D5F1200E0DDB02FAEE
:104940000EFC22FA05F2801841F1000103FA0EF282
:10495000801843FA05F359410EE0A5F120050EF148
:10496000200E012A03FA0EFC28BF4CF0020C43FA79
:1049700005F3C01851EBE37101F0004507D54FF086
:10498000000EDCF1000C7EEB00006EEB0101B1F5D6
:10499000801F1BD3B1F5001F0CD349085FEA30001C
:1049A0004FEA3C0C04F101044FEA445212F5800F27
:1049B00080F09A80BCF1004F08BF5FEA500C50F1C4
:1049C000000041EB045141EA050130BD5FEA4C0CA7
:1049D000404141EB0101013C28BFB1F5801FE9D204
:1049E00091F0000F04BF01460020B1FA81F308BF27
:1049F0002033A3F10B03B3F120020CDA0C3208DDF3
:104A000002F1140CC2F10C0201FA0CF021FA02F1CD
:104A10000CE002F11402D8BFC2F1200C01FA02F13D
:104A200020FA0CFCDCBF41EA0C019040E41AA2BF62
:104A300001EB0451294330BD6FEA04041F3C1CDA2A
:104A40000C340EDC04F11404C4F1200220FA04F04A
:104A500001FA02F340EA030021FA04F345EA0301F4
:104A600030BDC4F10C04C4F1200220FA02F001FAB6
:104A700004F340EA0300294630BD21FA04F0294638
:104A800030BD94F0000F83F4801306BF81F48011D1
:104A90000134013D4EE77FEA645C18BF7FEA655C44
:104AA00029D094EA050F08BF90EA020F05D054EA16
:104AB000000C04BF1946104630BD91EA030F1EBF1B
:104AC0000021002030BD5FEA545C05D1400049411F
:104AD00028BF41F0004130BD14F580043CBF01F512
:104AE000801130BD01F0004545F0FE4141F47001F8
:104AF0004FF0000030BD7FEA645C1ABF19461046D3
:104B00007FEA655C1CBF0B46024650EA013406BFD3
:104B100052EA033591EA030F41F4002130BD00BF92
:104B200090F0000F04BF0021704730B54FF480644F
:104B300004F132044FF000054FF0000150E700BFD0
:104B400090F0000F04BF0021704730B54FF480642F
:104B500004F1320410F0004548BF40424FF000011C
:104B60003EE700BF42004FEAE2014FEA31014FEA5F
:104B700002701FBF12F07F4393F07F4F81F06051AE
:104B8000704732F07F4208BF704793F07F4F04BFF9
:104B900041F40021704730B54FF4607401F00045D6
:104BA00021F000411CE700BF50EA010208BF704736
:104BB00030B54FF000050AE050EA010208BF704727
:104BC00030B511F0004502D5404261EB41014FF490
:104BD000806404F132045FEA915C3FF4D8AE4FF098
:104BE00003025FEADC0C18BF03325FEADC0C18BF7B
:104BF000033202EBDC02C2F1200300FA03FC20FACC
:104C000002F001FA03FE40EA0E0021FA02F1144418
:104C1000BDE600BF70B54FF0FF0C4CF4E06C1CEA31
:104C200011541DBF1CEA135594EA0C0F95EA0C0FA2
:104C300000F0DEF82C4481EA030621EA4C5123EA15
:104C40004C5350EA013518BF52EA033541F4801144
:104C500043F4801338D0A0FB02CE4FF00005E1FBF7
:104C600002E506F00042E0FB03E54FF00006E1FB41
:104C700003569CF0000F18BF4EF0010EA4F1FF0484
:104C8000B6F5007F64F5407404D25FEA4E0E6D41C4
:104C900046EB060642EAC62141EA55514FEAC520D5
:104CA00040EA5E504FEACE2EB4F1FD0C88BFBCF551
:104CB000E06F1ED8BEF1004F08BF5FEA500E50F102
:104CC000000041EB045170BD06F0004646EA0101C8
:104CD00040EA020081EA0301B4EB5C04C2BFD4EBFA
:104CE0000C0541EA045170BD41F480114FF0000EF3
:104CF000013C00F3AB8014F1360FDEBF002001F061
:104D0000004170BDC4F10004203C35DA0C341BDCDA
:104D100004F11404C4F1200500FA05F320FA04F0AC
:104D200001FA05F240EA020001F0004221F00041E0
:104D300010EBD37021FA04F642EB06015EEA430E53
:104D400008BF20EAD37070BDC4F10C04C4F1200583
:104D500000FA04F320FA05F001FA04F240EA020036
:104D600001F0004110EBD37041F100015EEA430E07
:104D700008BF20EAD37070BDC4F1200500FA05F227
:104D80004EEA020E20FA04F301FA05F243EA0203A6
:104D900021FA04F001F0004121FA04F220EA0200B5
:104DA00000EBD3705EEA430E08BF20EAD37070BDFB
:104DB00094F0000F0FD101F00046400041EB0101DB
:104DC00011F4801F08BF013CF7D041EA060195F0BD
:104DD000000F18BF704703F00046520043EB030377
:104DE00013F4801F08BF013DF7D043EA0603704764
:104DF00094EA0C0F0CEA135518BF95EA0C0F0CD06F
:104E000050EA410618BF52EA4306D1D181EA0301B4
:104E100001F000414FF0000070BD50EA410606BFAE
:104E20001046194652EA430619D094EA0C0F02D1F3
:104E300050EA013613D195EA0C0F05D152EA033638
:104E40001CBF104619460AD181EA030101F0004156
:104E500041F0FE4141F470014FF0000070BD41F09F
:104E6000FE4141F4780170BD70B54FF0FF0C4CF479
:104E7000E06C1CEA11541DBF1CEA135594EA0C0F98
:104E800095EA0C0F00F0A7F8A4EB050481EA030EE5
:104E900052EA03354FEA013100F088804FEA0333CC
:104EA0004FF0805545EA131343EA12634FEA02229A
:104EB00045EA111545EA10654FEA00260EF000415B
:104EC0009D4208BF964244F1FD0404F5407402D2AD
:104ED0005B084FEA3202B61A65EB03055B084FEA3E
:104EE00032024FF480104FF4002CB6EB020E75EB3B
:104EF000030E22BFB61A754640EA0C005B084FEA63
:104F00003202B6EB020E75EB030E22BFB61A7546DF
:104F100040EA5C005B084FEA3202B6EB020E75EB2A
:104F2000030E22BFB61A754640EA9C005B084FEAA2
:104F30003202B6EB020E75EB030E22BFB61A7546AF
:104F400040EADC0055EA060E18D04FEA051545EA9E
:104F500016754FEA06164FEAC30343EA52734FEA47
:104F6000C2025FEA1C1CC0D111F4801F0BD141EAC0
:104F700000014FF000004FF0004CB6E711F4801F25
:104F800004BF01430020B4F1FD0C88BFBCF5E06F05
:104F90003FF6AFAEB5EB030C04BFB6EB020C5FEA15
:104FA000500C50F1000041EB045170BD0EF0004E6A
:104FB0004EEA113114EB5C04C2BFD4EB0C0541EA9C
:104FC000045170BD41F480114FF0000E013C90E699
:104FD00045EA060E8DE60CEA135594EA0C0F08BF5D
:104FE00095EA0C0F3FF43BAF94EA0C0F0AD150EA5C
:104FF00001347FF434AF95EA0C0F7FF425AF1046EF
:1050000019462CE795EA0C0F06D152EA03353FF416
:10501000FDAE1046194622E750EA410618BF52EA93
:1050200043067FF4C5AE50EA41047FF40DAF52EA67
:1050300043057FF4EBAE12E74FF0FF3C06E000BF04
:105040004FF0010C02E000BF4FF0010C4DF804CD11
:105050004FEA410C7FEA6C5C4FEA430C18BF7FEAD1
:105060006C5C1BD001B050EA410C0CBF52EA430CFF
:1050700091EA030F02BF90EA020F0020704710F17F
:10508000000F91EA030F58BF994208BF90422CBF0E
:10509000D8176FEAE37040F0010070474FEA410C07
:1050A0007FEA6C5C02D150EA013C07D14FEA430C25
:1050B0007FEA6C5CD6D152EA033CD3D05DF8040B96
:1050C000704700BF8446104662468C4619466346C8
:1050D00000E000BF01B5FFF7B7FF002848BF10F19F
:1050E000000F01BD4DF808EDFFF7F4FF0CBF0120E4
:1050F00000205DF808FB00BF4DF808EDFFF7EAFF60
:1051000034BF012000205DF808FB00BF4DF808ED1A
:10511000FFF7E0FF94BF012000205DF808FB00BF0F
:105120004DF808EDFFF7CEFF94BF012000205DF899
:1051300008FB00BF4DF808EDFFF7C4FF34BF0120A6
:1051400000205DF808FB00BF4FEA410C7FEA6C5C71
:1051500002D150EA013C0AD14FEA430C7FEA6C5C71
:1051600002D152EA033C02D14FF0000070474FF0E9
:10517000010070474FEA410212F5001215D211D515
:105180006FF47873B3EB625212D94FEAC12343F044
:10519000004343EA505311F0004F23FA02F018BFC6
:1051A000404270474FF00000704750EA013005D18F
:1051B00011F0004008BF6FF0004070474FF0000052
:1051C000704700BF4FEA4102B2F1E04324BFB3F59C
:1051D000001CDCF1FE5C0DD901F0004C4FEAC0026E
:1051E0004CEA5070B2F1004F40EB830008BF20F052
:1051F0000100704711F0804F21D113F13872BCBF0C
:1052000001F00040704741F480114FEA5252C2F160
:105210001802C2F1200C10FA0CF320FA02F018BFA9
:1052200040F001004FEAC1234FEAD32303FA0CFCFC
:1052300040EA0C0023FA02F34FEA4303CCE77FEA8B
:10524000625307D150EA01331EBF4FF0FE4040F4D5
:105250004000704701F0004040F0FE4040F4000084
:10526000704700BF80F0004002E000BF81F00041C5
:1052700042001FBF5FEA410392EA030F7FEA226CFC
:105280007FEA236C6AD04FEA1262D2EB1363C1BF8C
:10529000D218414048404140B8BF5B42192B88BFFB
:1052A000704710F0004F40F4000020F07F4018BF1E
:1052B000404211F0004F41F4000121F07F4118BF3E
:1052C000494292EA030F3FD0A2F1010241FA03FCE6
:1052D00010EB0C00C3F1200301FA03F100F00043CE
:1052E00002D5494260EB4000B0F5000F13D3B0F196
:1052F000807F06D340084FEA310102F10102FE2A05
:1053000051D2B1F1004F40EBC25008BF20F0010074
:1053100040EA03007047490040EB0000013A28BF13
:10532000B0F5000FEDD2B0FA80FCACF1080CB2EB96
:105330000C0200FA0CF0AABF00EBC2505242184314
:10534000BCBFD0401843704792F0000F81F40001B9
:1053500006BF80F400000132013BB5E74FEA41038C
:105360007FEA226C18BF7FEA236C21D092EA030FF8
:1053700004D092F0000F08BF0846704790EA010F72
:105380001CBF0020704712F07F4F04D1400028BF9F
:1053900040F00040704712F100723CBF00F5000081
:1053A000704700F0004343F0FE4040F400007047B7
:1053B0007FEA226216BF08467FEA23630146420263
:1053C00006BF5FEA412390EA010F40F48000704776
:1053D0004FF0000304E000BF10F0004348BF40421C
:1053E0005FEA000C08BF704743F0964301464FF058
:1053F00000001CE050EA010208BF70474FF00003B4
:105400000AE000BF50EA010208BF704711F00043F4
:1054100002D5404261EB41015FEA010C02BF8446C4
:105420000146002043F0B64308BFA3F18053A3F523
:105430000003BCFA8CF2083AA3EBC25310DB01FA6A
:1054400002FC634400FA02FCC2F12002BCF1004FEE
:1054500020FA02F243EB020008BF20F0010070477F
:1054600002F1200201FA02FCC2F1200250EA4C00D3
:1054700021FA02F243EB020008BF20EADC70704719
:105480004FF0FF0C1CEAD0521EBF1CEAD15392EA27
:105490000C0F93EA0C0F6FD01A4480EA010C400203
:1054A00018BF5FEA41211ED04FF0006343EA50105D
:1054B00043EA5111A0FB01310CF00040B1F5000F9F
:1054C0003EBF490041EAD3715B0040EA010062F14E
:1054D0007F02FD2A1DD8B3F1004F40EBC25008BF38
:1054E00020F00100704790F0000F0CF0004C08BF56
:1054F00049024CEA502040EA51207F3AC2BFD2F123
:10550000FF0340EAC250704740F400004FF0000330
:10551000013A5DDC12F1190FDCBF00F0004070476A
:10552000C2F10002410021FA02F1C2F1200200FAA8
:1055300002FC5FEA310040F1000053EA4C0308BF6F
:1055400020EADC70704792F0000F00F0004C02BFC0
:10555000400010F4000F013AF9D040EA0C0093F03B
:10556000000F01F0004C02BF490011F4000F013B95
:10557000F9D041EA0C018FE70CEAD15392EA0C0F03
:1055800018BF93EA0C0F0AD030F0004C18BF31F06E
:10559000004CD8D180EA010000F00040704790F044
:1055A000000F17BF90F0004F084691F0000F91F0E8
:1055B000004F14D092EA0C0F01D142020FD193EAAE
:1055C0000C0F03D14B0218BF084608D180EA010036
:1055D00000F0004040F0FE4040F40000704740F012
:1055E000FE4040F4400070474FF0FF0C1CEAD052E0
:1055F0001EBF1CEAD15392EA0C0F93EA0C0F69D03C
:10560000A2EB030280EA010C49024FEA402037D0A6
:105610004FF0805343EA111143EA10130CF000409D
:105620008B4238BF5B0042F17D024FF4000C8B428D
:1056300024BF5B1A40EA0C00B3EB510F24BFA3EB6D
:10564000510340EA5C00B3EB910F24BFA3EB91033D
:1056500040EA9C00B3EBD10F24BFA3EBD10340EA97
:10566000DC001B0118BF5FEA1C1CE0D1FD2A3FF6DD
:1056700050AF8B4240EBC25008BF20F00100704792
:105680000CF0004C4CEA50207F32C2BFD2F1FF0335
:1056900040EAC250704740F400004FF00003013A66
:1056A00037E792F0000F00F0004C02BF400010F40A
:1056B000000F013AF9D040EA0C0093F0000F01F01E
:1056C000004C02BF490011F4000F013BF9D041EA40
:1056D0000C0195E70CEAD15392EA0C0F08D1420273
:1056E0007FF47DAF93EA0C0F7FF470AF084676E746
:1056F00093EA0C0F04D14B023FF44CAF08466EE71F
:1057000030F0004C18BF31F0004CCAD130F00042EC
:105710007FF45CAF31F000437FF43CAF5FE700BF44
:1057200042000ED2B2F1FE4F0BD34FF09E03B3EB0B
:10573000126209D44FEA002343F0004323FA02F037
:1057400070474FF00000704712F1610F01D1420223
:1057500002D14FF0FF3070474FF00000704700BF9C
:1057600053B94AB9002908BF00281CBF4FF0FF31C8
:105770004FF0FF3000F072B9ADF1080C6DE904CEC6
:1057800000F006F8DDF804E0DDE9022304B070471C
:105790002DE9F047089E0D4604468E46002B4CD15D
:1057A0008A42944667D9B2FA82F353B102FA03FCF3
:1057B000C3F1200201FA03FE20FA02F242EA0E0EC1
:1057C0009C404FEA1C47BEFBF7F11FFA8CF507FB24
:1057D00011EE01FB05F0220C42EA0E4290420AD97A
:1057E0001CEB020201F1FF3E80F01981904240F271
:1057F000168102396244121AB2FBF7F007FB10223D
:1058000000FB05F5A4B244EA0244A5420AD91CEB08
:10581000040400F1FF3280F00481A54240F20181CE
:105820006444023840EA01400021641B1EB1DC40A0
:105830000023C6E90043BDE8F0878B4208D9002E5B
:1058400000F0EA800021C6E900050846BDE8F087BF
:10585000B3FA83F1002948D1AB4202D3824200F26D
:10586000F880841A65EB030201209646002EE2D0F0
:10587000C6E9004EDFE702B9FFDEB2FA82F3002B81
:1058800040F08E80881A0121170C1FFA82FEB0FBAF
:10589000F7F507FB1500220C42EA00420EFB05F06B
:1058A000904208D91CEB020205F1FF3802D2904267
:1058B00000F2CC804546121AB2FBF7F007FB10222B
:1058C0000EFB00FEA4B244EA0244A64508D91CEB34
:1058D000040400F1FF3202D2A64500F2B480104663
:1058E000A4EB0E0440EA0540A0E7C1F120078B407D
:1058F00022FA07FC4CEA030C25FA07FA4FEA1C4986
:10590000BAFBF9F88D4020FA07F309FB18AA1FFA31
:105910008CFE2B4300FA01F508FB0EF01C0C44EA48
:105920000A44A04202FA01F20BD91CEB040408F16C
:10593000FF3A80F08680A04240F28380A8F10208FE
:105940006444241A98B2B4FBF9F309FB134403FB33
:105950000EFE40EA0444A64508D91CEB040403F1FA
:10596000FF306AD2A64568D9023B644443EA084046
:10597000A0FB0293A4EB0E049C42C8469E4654D35F
:1059800051D0002E67D0B5EB080364EB0E04CB407A
:1059900004FA07F71F43CC40C6E9007400214AE728
:1059A00002FA03FCC3F12000C1409D4024FA00F03C
:1059B0004FEA1C472843B1FBF7F507FB15111FFA07
:1059C0008CFE020C42EA014205FB0EF1914204FA00
:1059D00003F408D91CEB020205F1FF382FD29142E3
:1059E0002DD9023D6244521AB2FBF7F107FB112296
:1059F00080B240EA024001FB0EF2824208D91CEB61
:105A0000000001F1FF3816D2824214D902396044F5
:105A1000801A41EA05413AE7314630460BE77146C4
:105A2000E9E61046FEE64D45ABD2B9EB020863EB62
:105A30000C0E0138A5E74146EAE7034696E74546DE
:105A4000D1E7D0467DE76444023849E7023D62442D
:105A500031E708460AE73146EDE600BF704700BF70
:105A600008B5064B044613B10021AFF30080044B88
:105A70001B6803B198472046FBF70EFB00000000AF
:105A8000080B0020024B0146186800F02BB800BF3D
:105A900090050020024B0146186800F0DFBC00BFF3
:105AA0009005002070B50E4E0C463168054611B9C0
:105AB00000F062FC30602146284600F05DFC431C8B
:105AC0000AD0C41C24F00304A04207D0211A28469F
:105AD00000F052FC013001D14FF0FF34204670BD80
